{
  "contractName": "EnergyProduction",
  "abi": [
    {
      "constant": true,
      "inputs": [
        {
          "name": "",
          "type": "uint256"
        }
      ],
      "name": "proAccntList",
      "outputs": [
        {
          "name": "",
          "type": "address"
        }
      ],
      "payable": false,
      "stateMutability": "view",
      "type": "function"
    },
    {
      "inputs": [],
      "payable": false,
      "stateMutability": "nonpayable",
      "type": "constructor"
    },
    {
      "anonymous": false,
      "inputs": [
        {
          "indexed": false,
          "name": "pvAddr",
          "type": "address"
        },
        {
          "indexed": false,
          "name": "owner",
          "type": "string"
        },
        {
          "indexed": false,
          "name": "deviceType",
          "type": "string"
        },
        {
          "indexed": false,
          "name": "peakPowerPos",
          "type": "uint32"
        },
        {
          "indexed": false,
          "name": "peakPowerNeg",
          "type": "uint32"
        },
        {
          "indexed": false,
          "name": "latitude",
          "type": "uint32"
        },
        {
          "indexed": false,
          "name": "longitude",
          "type": "uint32"
        },
        {
          "indexed": false,
          "name": "voltageLevel",
          "type": "uint32"
        },
        {
          "indexed": false,
          "name": "location",
          "type": "string"
        },
        {
          "indexed": false,
          "name": "installDate",
          "type": "string"
        }
      ],
      "name": "ProducerRegs",
      "type": "event"
    },
    {
      "anonymous": false,
      "inputs": [
        {
          "indexed": false,
          "name": "oliAddr",
          "type": "address"
        },
        {
          "indexed": false,
          "name": "eTime",
          "type": "uint256"
        },
        {
          "indexed": false,
          "name": "enerAmount",
          "type": "uint32"
        }
      ],
      "name": "EnerProductionEvent",
      "type": "event"
    },
    {
      "anonymous": false,
      "inputs": [
        {
          "indexed": false,
          "name": "oliAddr",
          "type": "address"
        },
        {
          "indexed": false,
          "name": "txTime",
          "type": "uint256[]"
        },
        {
          "indexed": false,
          "name": "txValue",
          "type": "uint32[]"
        },
        {
          "indexed": false,
          "name": "blockNumber",
          "type": "uint256[]"
        },
        {
          "indexed": false,
          "name": "blockHash",
          "type": "bytes32[]"
        },
        {
          "indexed": false,
          "name": "txGasPrice",
          "type": "uint256[]"
        }
      ],
      "name": "ProTransactionEvent",
      "type": "event"
    },
    {
      "constant": false,
      "inputs": [
        {
          "name": "_owner",
          "type": "string"
        },
        {
          "name": "_deviceType",
          "type": "string"
        },
        {
          "name": "_peakPowerPos",
          "type": "uint32"
        },
        {
          "name": "_peakPowerNeg",
          "type": "uint32"
        },
        {
          "name": "_latitude",
          "type": "uint32"
        },
        {
          "name": "_longitude",
          "type": "uint32"
        },
        {
          "name": "_voltageLevel",
          "type": "uint32"
        },
        {
          "name": "_location",
          "type": "string"
        },
        {
          "name": "_installDate",
          "type": "string"
        }
      ],
      "name": "setProducer",
      "outputs": [],
      "payable": false,
      "stateMutability": "nonpayable",
      "type": "function"
    },
    {
      "constant": true,
      "inputs": [
        {
          "name": "producerAddr",
          "type": "address"
        }
      ],
      "name": "proAccntsArr",
      "outputs": [
        {
          "name": "",
          "type": "bool"
        }
      ],
      "payable": false,
      "stateMutability": "view",
      "type": "function"
    },
    {
      "constant": true,
      "inputs": [],
      "name": "getProducer",
      "outputs": [
        {
          "name": "",
          "type": "address"
        },
        {
          "name": "",
          "type": "string"
        },
        {
          "name": "",
          "type": "string"
        },
        {
          "name": "",
          "type": "uint32"
        },
        {
          "name": "",
          "type": "uint32"
        },
        {
          "name": "",
          "type": "uint32"
        },
        {
          "name": "",
          "type": "uint32"
        },
        {
          "name": "",
          "type": "uint32"
        },
        {
          "name": "",
          "type": "string"
        },
        {
          "name": "",
          "type": "string"
        }
      ],
      "payable": false,
      "stateMutability": "view",
      "type": "function"
    },
    {
      "constant": true,
      "inputs": [
        {
          "name": "_proAccntAddr",
          "type": "address"
        }
      ],
      "name": "getProAccntDetails",
      "outputs": [
        {
          "name": "",
          "type": "string"
        },
        {
          "name": "",
          "type": "string"
        },
        {
          "name": "",
          "type": "uint32"
        },
        {
          "name": "",
          "type": "string"
        },
        {
          "name": "",
          "type": "uint32"
        },
        {
          "name": "",
          "type": "uint32"
        },
        {
          "name": "",
          "type": "string"
        }
      ],
      "payable": false,
      "stateMutability": "view",
      "type": "function"
    },
    {
      "constant": true,
      "inputs": [],
      "name": "getProAccntsList",
      "outputs": [
        {
          "name": "",
          "type": "address[]"
        }
      ],
      "payable": false,
      "stateMutability": "view",
      "type": "function"
    },
    {
      "constant": true,
      "inputs": [],
      "name": "countProducers",
      "outputs": [
        {
          "name": "",
          "type": "uint256"
        }
      ],
      "payable": false,
      "stateMutability": "view",
      "type": "function"
    },
    {
      "constant": false,
      "inputs": [
        {
          "name": "_enerValue",
          "type": "uint32"
        }
      ],
      "name": "setEnerProduction",
      "outputs": [],
      "payable": false,
      "stateMutability": "nonpayable",
      "type": "function"
    },
    {
      "constant": true,
      "inputs": [],
      "name": "getEnerProduction",
      "outputs": [
        {
          "name": "",
          "type": "address"
        },
        {
          "name": "",
          "type": "uint256"
        },
        {
          "name": "",
          "type": "uint32"
        }
      ],
      "payable": false,
      "stateMutability": "view",
      "type": "function"
    },
    {
      "constant": true,
      "inputs": [
        {
          "name": "_proAccntAddr",
          "type": "address"
        }
      ],
      "name": "getProEnerProduction",
      "outputs": [
        {
          "name": "",
          "type": "address"
        },
        {
          "name": "",
          "type": "uint256[]"
        },
        {
          "name": "",
          "type": "uint32[]"
        },
        {
          "name": "",
          "type": "uint256[]"
        },
        {
          "name": "",
          "type": "bytes32[]"
        },
        {
          "name": "",
          "type": "uint256[]"
        }
      ],
      "payable": false,
      "stateMutability": "view",
      "type": "function"
    },
    {
      "constant": true,
      "inputs": [
        {
          "name": "_proAccntAddr",
          "type": "address"
        }
      ],
      "name": "getProBalance",
      "outputs": [
        {
          "name": "",
          "type": "uint256"
        }
      ],
      "payable": false,
      "stateMutability": "view",
      "type": "function"
    }
  ],
  "bytecode": "0x606060405234156200001057600080fd5b600580548060010182816200002691906200007b565b9160005260206000209001600080909190916101000a81548173ffffffffffffffffffffffffffffffffffffffff021916908373ffffffffffffffffffffffffffffffffffffffff16021790555050620000d2565b815481835581811511620000a557818360005260206000209182019101620000a49190620000aa565b5b505050565b620000cf91905b80821115620000cb576000816000905550600101620000b1565b5090565b90565b61255780620000e26000396000f3006060604052600436106100af576000357c0100000000000000000000000000000000000000000000000000000000900463ffffffff16806329b48069146100b45780632f183cfd146101015780633ddc0835146103655780634bb4577f146105465780637d0691fb146105b0578063ba0cfdce14610601578063c15ab9751461062a578063ce0ccd0914610699578063dd1063aa146106fc578063e1a9249c1461092b578063f1f1ecb714610a9c575b600080fd5b34156100bf57600080fd5b6100eb600480803573ffffffffffffffffffffffffffffffffffffffff16906020019091905050610ac5565b6040518082815260200191505060405180910390f35b341561010c57600080fd5b610114610b0e565b604051808b73ffffffffffffffffffffffffffffffffffffffff1673ffffffffffffffffffffffffffffffffffffffff16815260200180602001806020018a63ffffffff1663ffffffff1681526020018963ffffffff1663ffffffff1681526020018863ffffffff1663ffffffff1681526020018763ffffffff1663ffffffff1681526020018663ffffffff1663ffffffff168152602001806020018060200185810385528e818151815260200191508051906020019080838360005b838110156101ec5780820151818401526020810190506101d1565b50505050905090810190601f1680156102195780820380516001836020036101000a031916815260200191505b5085810384528d818151815260200191508051906020019080838360005b83811015610252578082015181840152602081019050610237565b50505050905090810190601f16801561027f5780820380516001836020036101000a031916815260200191505b50858103835287818151815260200191508051906020019080838360005b838110156102b857808201518184015260208101905061029d565b50505050905090810190601f1680156102e55780820380516001836020036101000a031916815260200191505b50858103825286818151815260200191508051906020019080838360005b8381101561031e578082015181840152602081019050610303565b50505050905090810190601f16801561034b5780820380516001836020036101000a031916815260200191505b509e50505050505050505050505050505060405180910390f35b341561037057600080fd5b61039c600480803573ffffffffffffffffffffffffffffffffffffffff16906020019091905050611067565b604051808773ffffffffffffffffffffffffffffffffffffffff1673ffffffffffffffffffffffffffffffffffffffff168152602001806020018060200180602001806020018060200186810386528b818151815260200191508051906020019060200280838360005b83811015610421578082015181840152602081019050610406565b5050505090500186810385528a818151815260200191508051906020019060200280838360005b83811015610463578082015181840152602081019050610448565b50505050905001868103845289818151815260200191508051906020019060200280838360005b838110156104a557808201518184015260208101905061048a565b50505050905001868103835288818151815260200191508051906020019060200280838360005b838110156104e75780820151818401526020810190506104cc565b50505050905001868103825287818151815260200191508051906020019060200280838360005b8381101561052957808201518184015260208101905061050e565b505050509050019b50505050505050505050505060405180910390f35b341561055157600080fd5b6105596113bb565b6040518080602001828103825283818151815260200191508051906020019060200280838360005b8381101561059c578082015181840152602081019050610581565b505050509050019250505060405180910390f35b34156105bb57600080fd5b6105e7600480803573ffffffffffffffffffffffffffffffffffffffff1690602001909190505061144f565b604051808215151515815260200191505060405180910390f35b341561060c57600080fd5b6106146114ce565b6040518082815260200191505060405180910390f35b341561063557600080fd5b61063d6114de565b604051808473ffffffffffffffffffffffffffffffffffffffff1673ffffffffffffffffffffffffffffffffffffffff1681526020018381526020018263ffffffff1663ffffffff168152602001935050505060405180910390f35b34156106a457600080fd5b6106ba6004808035906020019091905050611585565b604051808273ffffffffffffffffffffffffffffffffffffffff1673ffffffffffffffffffffffffffffffffffffffff16815260200191505060405180910390f35b341561070757600080fd5b610733600480803573ffffffffffffffffffffffffffffffffffffffff169060200190919050506115c4565b6040518080602001806020018863ffffffff1663ffffffff168152602001806020018763ffffffff1663ffffffff1681526020018663ffffffff1663ffffffff1681526020018060200185810385528c818151815260200191508051906020019080838360005b838110156107b557808201518184015260208101905061079a565b50505050905090810190601f1680156107e25780820380516001836020036101000a031916815260200191505b5085810384528b818151815260200191508051906020019080838360005b8381101561081b578082015181840152602081019050610800565b50505050905090810190601f1680156108485780820380516001836020036101000a031916815260200191505b50858103835289818151815260200191508051906020019080838360005b83811015610881578082015181840152602081019050610866565b50505050905090810190601f1680156108ae5780820380516001836020036101000a031916815260200191505b50858103825286818151815260200191508051906020019080838360005b838110156108e75780820151818401526020810190506108cc565b50505050905090810190601f1680156109145780820380516001836020036101000a031916815260200191505b509b50505050505050505050505060405180910390f35b341561093657600080fd5b610a9a600480803590602001908201803590602001908080601f0160208091040260200160405190810160405280939291908181526020018383808284378201915050505050509190803590602001908201803590602001908080601f0160208091040260200160405190810160405280939291908181526020018383808284378201915050505050509190803563ffffffff1690602001909190803563ffffffff1690602001909190803563ffffffff1690602001909190803563ffffffff1690602001909190803563ffffffff1690602001909190803590602001908201803590602001908080601f0160208091040260200160405190810160405280939291908181526020018383808284378201915050505050509190803590602001908201803590602001908080601f01602080910402602001604051908101604052809392919081815260200183838082843782019150505050505091905050611a6c565b005b3415610aa757600080fd5b610ac3600480803563ffffffff16906020019091905050611f89565b005b6000600360008373ffffffffffffffffffffffffffffffffffffffff1673ffffffffffffffffffffffffffffffffffffffff168152602001908152602001600020549050919050565b6000610b1861233f565b610b2061233f565b6000806000806000610b3061233f565b610b3861233f565b326000803273ffffffffffffffffffffffffffffffffffffffff1673ffffffffffffffffffffffffffffffffffffffff1681526020019081526020016000206000016000803273ffffffffffffffffffffffffffffffffffffffff1673ffffffffffffffffffffffffffffffffffffffff1681526020019081526020016000206001016000803273ffffffffffffffffffffffffffffffffffffffff1673ffffffffffffffffffffffffffffffffffffffff16815260200190815260200160002060020160009054906101000a900463ffffffff166000803273ffffffffffffffffffffffffffffffffffffffff1673ffffffffffffffffffffffffffffffffffffffff16815260200190815260200160002060020160049054906101000a900463ffffffff166000803273ffffffffffffffffffffffffffffffffffffffff1673ffffffffffffffffffffffffffffffffffffffff16815260200190815260200160002060020160089054906101000a900463ffffffff166000803273ffffffffffffffffffffffffffffffffffffffff1673ffffffffffffffffffffffffffffffffffffffff168152602001908152602001600020600201600c9054906101000a900463ffffffff166000803273ffffffffffffffffffffffffffffffffffffffff1673ffffffffffffffffffffffffffffffffffffffff16815260200190815260200160002060020160109054906101000a900463ffffffff166000803273ffffffffffffffffffffffffffffffffffffffff1673ffffffffffffffffffffffffffffffffffffffff1681526020019081526020016000206003016000803273ffffffffffffffffffffffffffffffffffffffff1673ffffffffffffffffffffffffffffffffffffffff168152602001908152602001600020600401888054600181600116156101000203166002900480601f016020809104026020016040519081016040528092919081815260200182805460018160011615610100020316600290048015610e6c5780601f10610e4157610100808354040283529160200191610e6c565b820191906000526020600020905b815481529060010190602001808311610e4f57829003601f168201915b50505050509850878054600181600116156101000203166002900480601f016020809104026020016040519081016040528092919081815260200182805460018160011615610100020316600290048015610f085780601f10610edd57610100808354040283529160200191610f08565b820191906000526020600020905b815481529060010190602001808311610eeb57829003601f168201915b50505050509750818054600181600116156101000203166002900480601f016020809104026020016040519081016040528092919081815260200182805460018160011615610100020316600290048015610fa45780601f10610f7957610100808354040283529160200191610fa4565b820191906000526020600020905b815481529060010190602001808311610f8757829003601f168201915b50505050509150808054600181600116156101000203166002900480601f0160208091040260200160405190810160405280929190818152602001828054600181600116156101000203166002900480156110405780601f1061101557610100808354040283529160200191611040565b820191906000526020600020905b81548152906001019060200180831161102357829003601f168201915b50505050509050995099509950995099509950995099509950995090919293949596979899565b6000611071612353565b611079612367565b611081612353565b61108961237b565b611091612353565b86600460008973ffffffffffffffffffffffffffffffffffffffff1673ffffffffffffffffffffffffffffffffffffffff168152602001908152602001600020600001600460008a73ffffffffffffffffffffffffffffffffffffffff1673ffffffffffffffffffffffffffffffffffffffff168152602001908152602001600020600101600460008b73ffffffffffffffffffffffffffffffffffffffff1673ffffffffffffffffffffffffffffffffffffffff168152602001908152602001600020600201600460008c73ffffffffffffffffffffffffffffffffffffffff1673ffffffffffffffffffffffffffffffffffffffff168152602001908152602001600020600301600460008d73ffffffffffffffffffffffffffffffffffffffff1673ffffffffffffffffffffffffffffffffffffffff1681526020019081526020016000206004018480548060200260200160405190810160405280929190818152602001828054801561122757602002820191906000526020600020905b815481526020019060010190808311611213575b50505050509450838054806020026020016040519081016040528092919081815260200182805480156112a557602002820191906000526020600020906000905b82829054906101000a900463ffffffff1663ffffffff16815260200190600401906020826003010492830192600103820291508084116112685790505b50505050509350828054806020026020016040519081016040528092919081815260200182805480156112f757602002820191906000526020600020905b8154815260200190600101908083116112e3575b505050505092508180548060200260200160405190810160405280929190818152602001828054801561134d57602002820191906000526020600020905b81546000191681526020019060010190808311611335575b505050505091508080548060200260200160405190810160405280929190818152602001828054801561139f57602002820191906000526020600020905b81548152602001906001019080831161138b575b5050505050905095509550955095509550955091939550919395565b6113c361238f565b600580548060200260200160405190810160405280929190818152602001828054801561144557602002820191906000526020600020905b8160009054906101000a900473ffffffffffffffffffffffffffffffffffffffff1673ffffffffffffffffffffffffffffffffffffffff16815260200190600101908083116113fb575b5050505050905090565b6000808273ffffffffffffffffffffffffffffffffffffffff16141580156114b657506000600160008473ffffffffffffffffffffffffffffffffffffffff1673ffffffffffffffffffffffffffffffffffffffff16815260200190815260200160002054115b156114c457600190506114c9565b600090505b919050565b6000600160058054905003905090565b600080600032600260003273ffffffffffffffffffffffffffffffffffffffff1673ffffffffffffffffffffffffffffffffffffffff16815260200190815260200160002060000154600260003273ffffffffffffffffffffffffffffffffffffffff1673ffffffffffffffffffffffffffffffffffffffff16815260200190815260200160002060010160009054906101000a900463ffffffff16925092509250909192565b60058181548110151561159457fe5b90600052602060002090016000915054906101000a900473ffffffffffffffffffffffffffffffffffffffff1681565b6115cc61233f565b6115d461233f565b60006115de61233f565b6000806115e961233f565b6000808973ffffffffffffffffffffffffffffffffffffffff1673ffffffffffffffffffffffffffffffffffffffff1681526020019081526020016000206000016000808a73ffffffffffffffffffffffffffffffffffffffff1673ffffffffffffffffffffffffffffffffffffffff1681526020019081526020016000206001016000808b73ffffffffffffffffffffffffffffffffffffffff1673ffffffffffffffffffffffffffffffffffffffff16815260200190815260200160002060020160009054906101000a900463ffffffff166000808c73ffffffffffffffffffffffffffffffffffffffff1673ffffffffffffffffffffffffffffffffffffffff1681526020019081526020016000206003016000808d73ffffffffffffffffffffffffffffffffffffffff1673ffffffffffffffffffffffffffffffffffffffff16815260200190815260200160002060020160089054906101000a900463ffffffff166000808e73ffffffffffffffffffffffffffffffffffffffff1673ffffffffffffffffffffffffffffffffffffffff168152602001908152602001600020600201600c9054906101000a900463ffffffff166000808f73ffffffffffffffffffffffffffffffffffffffff1673ffffffffffffffffffffffffffffffffffffffff168152602001908152602001600020600401868054600181600116156101000203166002900480601f0160208091040260200160405190810160405280929190818152602001828054600181600116156101000203166002900480156118785780601f1061184d57610100808354040283529160200191611878565b820191906000526020600020905b81548152906001019060200180831161185b57829003601f168201915b50505050509650858054600181600116156101000203166002900480601f0160208091040260200160405190810160405280929190818152602001828054600181600116156101000203166002900480156119145780601f106118e957610100808354040283529160200191611914565b820191906000526020600020905b8154815290600101906020018083116118f757829003601f168201915b50505050509550838054600181600116156101000203166002900480601f0160208091040260200160405190810160405280929190818152602001828054600181600116156101000203166002900480156119b05780601f10611985576101008083540402835291602001916119b0565b820191906000526020600020905b81548152906001019060200180831161199357829003601f168201915b50505050509350808054600181600116156101000203166002900480601f016020809104026020016040519081016040528092919081815260200182805460018160011615610100020316600290048015611a4c5780601f10611a2157610100808354040283529160200191611a4c565b820191906000526020600020905b815481529060010190602001808311611a2f57829003601f168201915b505050505090509650965096509650965096509650919395979092949650565b611a753261144f565b1515611f7e57600580549050600160003273ffffffffffffffffffffffffffffffffffffffff1673ffffffffffffffffffffffffffffffffffffffff16815260200190815260200160002081905550610120604051908101604052808a81526020018981526020018863ffffffff1681526020018763ffffffff1681526020018663ffffffff1681526020018563ffffffff1681526020018463ffffffff168152602001838152602001828152506000803273ffffffffffffffffffffffffffffffffffffffff1673ffffffffffffffffffffffffffffffffffffffff1681526020019081526020016000206000820151816000019080519060200190611b7d9291906123a3565b506020820151816001019080519060200190611b9a9291906123a3565b5060408201518160020160006101000a81548163ffffffff021916908363ffffffff16021790555060608201518160020160046101000a81548163ffffffff021916908363ffffffff16021790555060808201518160020160086101000a81548163ffffffff021916908363ffffffff16021790555060a082015181600201600c6101000a81548163ffffffff021916908363ffffffff16021790555060c08201518160020160106101000a81548163ffffffff021916908363ffffffff16021790555060e0820151816003019080519060200190611c7a9291906123a3565b50610100820151816004019080519060200190611c989291906123a3565b50905050600160058054806001018281611cb29190612423565b9160005260206000209001600032909190916101000a81548173ffffffffffffffffffffffffffffffffffffffff021916908373ffffffffffffffffffffffffffffffffffffffff16021790555050507f5bba84d3568a0b013b9eac75d4ba0c2aa6affa2d3d931aff1565c817e7438c40328a8a8a8a8a8a8a8a8a604051808b73ffffffffffffffffffffffffffffffffffffffff1673ffffffffffffffffffffffffffffffffffffffff16815260200180602001806020018a63ffffffff1663ffffffff1681526020018963ffffffff1663ffffffff1681526020018863ffffffff1663ffffffff1681526020018763ffffffff1663ffffffff1681526020018663ffffffff1663ffffffff168152602001806020018060200185810385528e818151815260200191508051906020019080838360005b83811015611e05578082015181840152602081019050611dea565b50505050905090810190601f168015611e325780820380516001836020036101000a031916815260200191505b5085810384528d818151815260200191508051906020019080838360005b83811015611e6b578082015181840152602081019050611e50565b50505050905090810190601f168015611e985780820380516001836020036101000a031916815260200191505b50858103835287818151815260200191508051906020019080838360005b83811015611ed1578082015181840152602081019050611eb6565b50505050905090810190601f168015611efe5780820380516001836020036101000a031916815260200191505b50858103825286818151815260200191508051906020019080838360005b83811015611f37578082015181840152602081019050611f1c565b50505050905090810190601f168015611f645780820380516001836020036101000a031916815260200191505b509e50505050505050505050505050505060405180910390a15b505050505050505050565b611f923261144f565b156122bd5760408051908101604052804281526020018263ffffffff16815250600260003273ffffffffffffffffffffffffffffffffffffffff1673ffffffffffffffffffffffffffffffffffffffff1681526020019081526020016000206000820151816000015560208201518160010160006101000a81548163ffffffff021916908363ffffffff1602179055509050508063ffffffff16600360003273ffffffffffffffffffffffffffffffffffffffff1673ffffffffffffffffffffffffffffffffffffffff168152602001908152602001600020600082825401925050819055506001600460003273ffffffffffffffffffffffffffffffffffffffff1673ffffffffffffffffffffffffffffffffffffffff16815260200190815260200160002060000180548060010182816120ce919061244f565b916000526020600020900160004290919091505550506001600460003273ffffffffffffffffffffffffffffffffffffffff1673ffffffffffffffffffffffffffffffffffffffff168152602001908152602001600020600101805480600101828161213a919061247b565b916000526020600020906008918282040191900660040284909190916101000a81548163ffffffff021916908363ffffffff1602179055505050600460003273ffffffffffffffffffffffffffffffffffffffff1673ffffffffffffffffffffffffffffffffffffffff16815260200190815260200160002060020180548060010182816121c8919061244f565b916000526020600020900160004390919091505550600460003273ffffffffffffffffffffffffffffffffffffffff1673ffffffffffffffffffffffffffffffffffffffff168152602001908152602001600020600301805480600101828161223191906124b5565b916000526020600020900160006001430340909190915090600019169055506001600460003273ffffffffffffffffffffffffffffffffffffffff1673ffffffffffffffffffffffffffffffffffffffff16815260200190815260200160002060040180548060010182816122a6919061244f565b916000526020600020900160003a90919091505550505b7f745f59dd4d2101f37334b5e8def36fa361850e77d5ea97b24fde9c098425081f324283604051808473ffffffffffffffffffffffffffffffffffffffff1673ffffffffffffffffffffffffffffffffffffffff1681526020018381526020018263ffffffff1663ffffffff168152602001935050505060405180910390a150565b602060405190810160405280600081525090565b602060405190810160405280600081525090565b602060405190810160405280600081525090565b602060405190810160405280600081525090565b602060405190810160405280600081525090565b828054600181600116156101000203166002900490600052602060002090601f016020900481019282601f106123e457805160ff1916838001178555612412565b82800160010185558215612412579182015b828111156124115782518255916020019190600101906123f6565b5b50905061241f91906124e1565b5090565b81548183558181151161244a5781836000526020600020918201910161244991906124e1565b5b505050565b8154818355818115116124765781836000526020600020918201910161247591906124e1565b5b505050565b8154818355818115116124b05760070160089004816007016008900483600052602060002091820191016124af91906124e1565b5b505050565b8154818355818115116124dc578183600052602060002091820191016124db9190612506565b5b505050565b61250391905b808211156124ff5760008160009055506001016124e7565b5090565b90565b61252891905b8082111561252457600081600090555060010161250c565b5090565b905600a165627a7a7230582079e5ac781a62beed9566faa2f08f4afc37b3a918d5e7fb15498414ff60f7a9820029",
  "source": "pragma solidity ^0.4.19;\r\n\r\ncontract EnergyProduction {\r\n\r\n  struct Producer {\r\n    string owner;\r\n    string deviceType;\r\n    uint32 peakPowerPos;\r\n    uint32 peakPowerNeg;\r\n    uint32 latitude;\r\n    uint32 longitude;\r\n    uint32 voltageLevel;\r\n    string location;\r\n    string installDate;\r\n  }\r\n\r\n  struct EnerProduction {\r\n    uint enerTime;\r\n    uint32 enerValue;\r\n  }\r\n\r\n  struct ProTransaction {\r\n    uint[] txTime;\r\n    uint32[] txValue;\r\n    uint[] blockNumber;\r\n    bytes32[] blockHash;\r\n    uint[] txGasPrice;\r\n  }\r\n\r\n  event ProducerRegs(address pvAddr, string owner, string deviceType, uint32 peakPowerPos, uint32 peakPowerNeg, uint32 latitude, uint32 longitude, uint32 voltageLevel, string location, string installDate);\r\n  event EnerProductionEvent(address oliAddr, uint256 eTime, uint32 enerAmount);\r\n  event ProTransactionEvent(address oliAddr, uint[] txTime, uint32[] txValue, uint[] blockNumber, bytes32[] blockHash, uint[] txGasPrice);\r\n\r\n  mapping (address => Producer) producers;\r\n  mapping (address => uint) accntIndexArr;\r\n  mapping (address => EnerProduction) enerProductions;\r\n  mapping (address => uint) proBalance;\r\n  mapping (address => ProTransaction) transactions;\r\n\r\n  address[] public proAccntList;\r\n\r\n  function EnergyProduction() {\r\n    // position 0 flag invalid address\r\n    proAccntList.push(0x0);\r\n  }\r\n\r\n  /*\r\n  * Registration\r\n  */\r\n\r\n  function setProducer(string _owner, string _deviceType, uint32 _peakPowerPos, uint32 _peakPowerNeg, uint32 _latitude, uint32 _longitude, uint32 _voltageLevel, string _location, string _installDate) {\r\n    if (!proAccntsArr(tx.origin)){\r\n      // mapping address to index\r\n      accntIndexArr[tx.origin] = proAccntList.length;\r\n      producers[tx.origin] = Producer(_owner, _deviceType, _peakPowerPos, _peakPowerNeg, _latitude, _longitude, _voltageLevel, _location, _installDate);\r\n      proAccntList.push(tx.origin) -1;\r\n      ProducerRegs(tx.origin, _owner, _deviceType, _peakPowerPos, _peakPowerNeg, _latitude, _longitude, _voltageLevel, _location, _installDate);\r\n    }\r\n  }\r\n\r\n  // check if an address is already registered or not\r\n  function proAccntsArr(address producerAddr) constant returns (bool) {\r\n    // address 0x0 is not valid if pos 0 is not in the array\r\n    if (producerAddr != 0x0 && accntIndexArr[producerAddr] > 0) {\r\n      return true;\r\n    }\r\n    return false;\r\n  }\r\n\r\n  // getting registration details\r\n  function getProducer() constant returns (address, string, string, uint32, uint32, uint32, uint32, uint32, string, string){\r\n    return (tx.origin, producers[tx.origin].owner, producers[tx.origin].deviceType, producers[tx.origin].peakPowerPos, producers[tx.origin].peakPowerNeg, producers[tx.origin].latitude, producers[tx.origin].longitude, producers[tx.origin].voltageLevel, producers[tx.origin].location, producers[tx.origin].installDate);\r\n  }\r\n\r\n  // get registation details for individual accounts\r\n  function getProAccntDetails(address _proAccntAddr) constant returns (string, string, uint32, string, uint32, uint32, string){\r\n    return (producers[_proAccntAddr].owner, producers[_proAccntAddr].deviceType, producers[_proAccntAddr].peakPowerPos, producers[_proAccntAddr].location, producers[_proAccntAddr].latitude, producers[_proAccntAddr].longitude, producers[_proAccntAddr].installDate);\r\n  }\r\n\r\n  // producer accounts list\r\n  function getProAccntsList() constant returns (address[]) {\r\n    return proAccntList;\r\n  }\r\n\r\n  // count for producer accounts\r\n  function countProducers() constant returns (uint) {\r\n    return (proAccntList.length) - 1;\r\n  }\r\n\r\n  /*\r\n  * Energy mapping setup\r\n  */\r\n\r\n  // getting energy time and amount\r\n  function setEnerProduction(uint32 _enerValue) {\r\n    // check if producer already exist\r\n    if (proAccntsArr(tx.origin)){\r\n      enerProductions[tx.origin] = EnerProduction(now, _enerValue);\r\n\r\n      // total energy balance\r\n      proBalance[tx.origin] += _enerValue;\r\n\r\n      // indidual accounts transaction history\r\n      transactions[tx.origin].txTime.push(now) -1;\r\n      transactions[tx.origin].txValue.push(_enerValue) -1;\r\n      transactions[tx.origin].blockNumber.push(block.number);\r\n      transactions[tx.origin].blockHash.push(block.blockhash(block.number -1));\r\n      transactions[tx.origin].txGasPrice.push(tx.gasprice) -1;\r\n    }\r\n\r\n    EnerProductionEvent(tx.origin, now, _enerValue);\r\n\r\n  }\r\n\r\n  function getEnerProduction()constant returns(address, uint, uint32){\r\n    return (tx.origin, enerProductions[tx.origin].enerTime, enerProductions[tx.origin].enerValue);\r\n  }\r\n\r\n  // getting energy production details for individual accounts\r\n\r\n  function getProEnerProduction(address _proAccntAddr)constant returns (address, uint[], uint32[], uint[], bytes32[], uint[]){\r\n    return (_proAccntAddr, transactions[_proAccntAddr].txTime, transactions[_proAccntAddr].txValue, transactions[_proAccntAddr].blockNumber, transactions[_proAccntAddr].blockHash, transactions[_proAccntAddr].txGasPrice);\r\n  }\r\n\r\n  // retrieving individula producer total amount of energy produced\r\n\r\n  function getProBalance(address _proAccntAddr)constant returns (uint){\r\n    return (proBalance[_proAccntAddr]);\r\n  }\r\n\r\n}\r\n\r\npragma solidity ^0.4.19;\r\n\r\ncontract EnergyConsumption {\r\n\r\n  struct Consumer {\r\n    string owner;\r\n    string deviceType;\r\n    uint32 peakPowerPos;\r\n    uint32 peakPowerNeg;\r\n    uint32 latitude;\r\n    uint32 longitude;\r\n    uint32 voltageLevel;\r\n    string location;\r\n    string installDate;\r\n  }\r\n\r\n  struct EnerConsumption {\r\n    uint enerTime;\r\n    uint32 enerValue;\r\n  }\r\n\r\n  struct ConsTransaction {\r\n    uint[] txTime;\r\n    uint32[] txValue;\r\n    uint[] blockNumber;\r\n    bytes32[] blockHash;\r\n    uint[] txGasPrice;\r\n  }\r\n\r\n  event ConsumerRegs(address pvAddr, string owner, string deviceType, uint32 peakPowerPos, uint32 peakPowerNeg, uint32 latitude, uint32 longitude, uint32 voltageLevel, string location, string installDate);\r\n  event EnerConsumptionEvent(address oliAddr, uint256 eTime, uint32 enerAmount);\r\n  event ConsTransactionEvent(address oliAddr, uint[] txTime, uint32[] txValue, uint[] blockNumber, bytes32[] blockHash, uint[] txGasPrice);\r\n\r\n  mapping (address => Consumer) consumers;\r\n  mapping (address => uint) accntIndexArr;\r\n  mapping (address => EnerConsumption) enerConsumptions;\r\n  mapping (address => uint) consBalance;\r\n  mapping (address => ConsTransaction) transactions;\r\n\r\n  address[] public consAccntList;\r\n\r\n  function EnergyConsumption() {\r\n    // position 0 flag invalid address\r\n    consAccntList.push(0x0);\r\n  }\r\n\r\n  /*\r\n  * Registration\r\n  */\r\n\r\n  function setConsumer(string _owner, string _deviceType, uint32 _peakPowerPos, uint32 _peakPowerNeg, uint32 _latitude, uint32 _longitude, uint32 _voltageLevel, string _location, string _installDate) {\r\n    if (!consAccntsArr(tx.origin)){\r\n      // mapping address to index\r\n      accntIndexArr[tx.origin] = consAccntList.length;\r\n      consumers[tx.origin] = Consumer(_owner, _deviceType, _peakPowerPos, _peakPowerNeg, _latitude, _longitude, _voltageLevel, _location, _installDate);\r\n      consAccntList.push(tx.origin) -1;\r\n      ConsumerRegs(tx.origin, _owner, _deviceType, _peakPowerPos, _peakPowerNeg, _latitude, _longitude, _voltageLevel, _location, _installDate);\r\n    }\r\n  }\r\n\r\n  // check if an address is already registered or not\r\n  function consAccntsArr(address consumerAddr) constant returns (bool) {\r\n    // address 0x0 is not valid if pos 0 is not in the array\r\n    if (consumerAddr != 0x0 && accntIndexArr[consumerAddr] > 0) {\r\n      return true;\r\n    }\r\n    return false;\r\n  }\r\n\r\n  // getting registration details\r\n  function getConsumer() constant returns (address, string, string, uint32, uint32, uint32, uint32, uint32, string, string){\r\n    return (tx.origin, consumers[tx.origin].owner, consumers[tx.origin].deviceType, consumers[tx.origin].peakPowerPos, consumers[tx.origin].peakPowerNeg, consumers[tx.origin].latitude, consumers[tx.origin].longitude, consumers[tx.origin].voltageLevel, consumers[tx.origin].location, consumers[tx.origin].installDate);\r\n  }\r\n\r\n  // get registation details for individual accounts\r\n  function getConsAccntDetails(address _consAccntAddr) constant returns (string, string, uint32, string, uint32, uint32, string){\r\n    return (consumers[_consAccntAddr].owner, consumers[_consAccntAddr].deviceType, consumers[_consAccntAddr].peakPowerPos, consumers[_consAccntAddr].location, consumers[_consAccntAddr].latitude, consumers[_consAccntAddr].longitude, consumers[_consAccntAddr].installDate);\r\n  }\r\n\r\n  // consumer accounts list\r\n  function getConsAccntsList() constant returns (address[]) {\r\n    return consAccntList;\r\n  }\r\n\r\n  // count for consumer accounts\r\n  function countConsumers() constant returns (uint) {\r\n    return (consAccntList.length) - 1;\r\n  }\r\n\r\n  /*\r\n  * Energy mapping setup\r\n  */\r\n\r\n  // getting energy time and amount\r\n  function setEnerConsumption(uint32 _enerValue) {\r\n    // check if consumer already exist\r\n    if (consAccntsArr(tx.origin)){\r\n      enerConsumptions[tx.origin] = EnerConsumption(now, _enerValue);\r\n\r\n      // total energy balance\r\n      consBalance[tx.origin] += _enerValue;\r\n\r\n      // indidual accounts transaction history\r\n      transactions[tx.origin].txTime.push(now) -1;\r\n      transactions[tx.origin].txValue.push(_enerValue) -1;\r\n      transactions[tx.origin].blockNumber.push(block.number);\r\n      transactions[tx.origin].blockHash.push(block.blockhash(block.number -1));\r\n      transactions[tx.origin].txGasPrice.push(tx.gasprice) -1;\r\n    }\r\n\r\n    EnerConsumptionEvent(tx.origin, now, _enerValue);\r\n\r\n  }\r\n\r\n  function getEnerConsumption()constant returns(address, uint, uint32){\r\n    return (tx.origin, enerConsumptions[tx.origin].enerTime, enerConsumptions[tx.origin].enerValue);\r\n  }\r\n\r\n  // getting energy consumption details for individual accounts\r\n\r\n  function getConsEnerConsumption(address _consAccntAddr)constant returns (address, uint[], uint32[], uint[], bytes32[], uint[]){\r\n    return (_consAccntAddr, transactions[_consAccntAddr].txTime, transactions[_consAccntAddr].txValue, transactions[_consAccntAddr].blockNumber, transactions[_consAccntAddr].blockHash, transactions[_consAccntAddr].txGasPrice);\r\n  }\r\n\r\n  // retrieving individula consumer total amount of energy consumed\r\n\r\n  function getConsBalance(address _consAccntAddr)constant returns (uint){\r\n    return (consBalance[_consAccntAddr]);\r\n  }\r\n\r\n}\r\n\r\n",
  "sourcePath": "C:\\Users\\felix.foerster\\documents\\github\\energy-certification\\truffle_compilation\\contracts\\EnergyBrowser.sol",
  "compiler": {
    "name": "solc",
    "version": "0.4.19+commit.c4cbbb05.Emscripten.clang"
  },
  "schemaVersion": "2.0.0",
  "updatedAt": "2018-05-14T10:21:16.176Z"
}